:10200000008000209D5C0000855C0000855C000075
:1020100000000000000000000000000000000000C0
:10202000000000000000000000000000855C0000CF
:102030000000000000000000855C0000F15C000072
:10204000855C0000855C0000855C0000855C00000C
:10205000855C0000855C0000855C0000895C0000F8
:10206000855C000035420000855C0000855C000056
:10207000B9280000855C000045420000855C000036
:10208000855C0000855C0000855C0000855C0000CC
:1020900000000000855C0000855C0000855C00009D
:1020A000855C0000855C0000855C0000855C0000AC
:1020B0000000000010B5064C2378002B07D1054B1B
:1020C000002B02D0044800E000BF0123237010BDA4
:1020D00020010020000000009C7D000008B5084B96
:1020E000002B03D00748084900E000BF07480368F9
:1020F000002B03D0064B002B00D0984708BDC046EC
:10210000000000009C7D0000240100201801002038
:1021100000000000F8B5071C0E1C0025114C201C07
:10212000B5421BD0104903F05DF9795D201C0F29E1
:1021300006D80E4903F056F9795D0F231940201C8B
:10214000102203F0BEF9012E06D9731E9D4203D062
:10215000201C074903F046F90135DFE703F050F989
:10216000F8BDC046A8040020767000006C6D000029
:1021700013700000F7B5354D0191071C0021281C94
:10218000142204F0ADFC019E0024721E92B2002EB7
:1021900039D0132C37D86B78412B15D0472B13D05F
:1021A0004D2B11D0512B02D1132C09D12BE0422BF6
:1021B00002D1052C04D126E0432B03D1062C22D0DA
:1021C000161C04E04C2BFBD10F2CF9D11BE03B6813
:1021D000381C9B68984700280FD03B68381CDB6888
:1021E0009847C0B2031C213B5A1E93415B421C40DE
:1021F00028550134A4B2019EE9E7002E03D0012046
:1022000003F08AFDC1E700232B55181C9C421BD00C
:102210002A78212A18D1611E6E5C1A1C8B4205DABD
:10222000E85C01331218D2B2DBB2F7E7D243D2B284
:10223000E0B2B24208D00649064803F0D7F8281C9D
:10224000611CFFF767FF0020FEBDC0463C01002077
:102250006E6D0000A804002038B5054C051C05492A
:10226000201C03F0C3F8201C291C03F0D1F8FEE762
:10227000A80400208D6D000037B5D42003F08AFD3E
:10228000082107220423051C01F0DAF8184C01216B
:10229000281C0A1C256001F0EBF9002801D1154823
:1022A00006E02068012101F013F8002802D112484D
:1022B000FFF7D2FF0021206801F026F8206801F026
:1022C00035F8206800250368291C45749B699847E8
:1022D00020680A4901F072F8A84207D0206808492E
:1022E000009501952A1C2B1C00F08CFF37BDC046C1
:1022F00060010020956D0000DD6D0000F46D0000B0
:10230000FA6D000038B5342003F044FD051C00F0E0
:1023100049FC1C4C281C70212030256000F01CFC5E
:102320002068203000F036FC2068032103689B6A97
:1023300098472068012101F06FFF2068012101F01A
:1023400070FF01222068022101F063FF0E4920681E
:1023500003F04CF82068203000F032FCFA208000B6
:1023600003F0DAFC206801210368DB6B98472068E2
:10237000002103689B6A98472068203000F020FC09
:1023800038BDC046540100200B6E0000F0B5144B60
:10239000441C186885B0203000F0FCFBA4B264082F
:1023A00000260F4B002C15D010250F2C00D8251C13
:1023B000186810222BB207680393521B0123009365
:1023C000521031B212B23F6B039B641BB847A4B2E8
:1023D0000136E6E71868203000F0F2FB05B0F0BDEA
:1023E0005401002038B5242003F0D4FC051C00F073
:1023F00013FC184C281C7421256000F0FFFC0028F9
:1024000002D11548FFF728FF206800F029FC20685A
:10241000022103689B6A98472068012101F0FCFEB5
:102420002068402101F0FDFE00222068012101F01A
:10243000F0FE0A49206802F0D9FFFA20800003F07C
:102440006BFC2068002103689B6A9847206800F0B5
:1024500007FC38BD580100200E6E00000B6E000016
:1024600010B50D20012103F0F3FD0D20002103F034
:1024700049FE0520002103F045FE0520012103F05F
:10248000E7FD0620022103F0E3FD114CE121201CB1
:10249000490201F0BDFF201C0E4902F0C3FF0E49A6
:1024A000201C02F0BFFFFFF7E7FE062003F05AFEF4
:1024B0000A4C002801D1012323602368002B01D19D
:1024C000FFF720FF2368012B01D1FFF78BFF10BD21
:1024D000A8040020296E0000436E0000680100205F
:1024E000F7B5071C081C04F039FA164903F0C6FFBB
:1024F0000024061C144D286801F098FE844220DA5E
:10250000E019182103F0AEFF104B8900C85804F001
:1025100025FA311C04F0D8F804F000FA83B22868D8
:102520000268022C05D00093156B21B2002207230C
:1025300004E00093156B211C01220623A8470134F7
:10254000D8E7F7BD00007F4358010020746E0000FB
:10255000304B70B51868B421FFF70CFE2E4B2F4D91
:1025600018702F4E00281CD000232B702D4B0122F9
:102570001A702D4B5A78432A09D1DA7898781B794A
:102580008018C018032103F017FF284B1860336828
:10259000002B02D0012B04D020E0244B1888FFF739
:1025A000F5FE3368012B10D11E4B1B78002B0CD08D
:1025B0001F4C2068431C23601C4B1968FFF790FFD9
:1025C0002368162B01DD002323602B78002B1FD0FE
:1025D00003F09CFB174B984203D819E01648FFF70D
:1025E0003BFE3368002B09D1144C2068203000F0EA
:1025F000D1FA2068203000F0E3FA05E0012BEDD19C
:102600000F4B186800F02CFB064A00232B70137048
:1026100070BDC046600100205C0100200000002069
:1026200068010020080000203C0100200400002078
:1026300064010020E09304005D6E0000540100205E
:1026400058010020F8B5051C0F1C161C0024B442CC
:1026500008D02B68395D1B68281C9847002801D0DA
:102660000134F4E7201CF8BD704708B5183002F0BB
:10267000A9FF08BD08B5183002F0B8FF08BD38B58D
:10268000837D0D1C002B06D0041CC434201C02F0DA
:10269000C3FF002801D0002004E0201C291C02F008
:1026A00078FF012038BD08B5183002F0A8FF08BD3A
:1026B000F7B50193FA239B0083600B4B0025083389
:1026C000041C4560036018300F1C161C02F054FFF8
:1026D000201CC43002F050FF019B27612675A575B0
:1026E000201C6375FEBDC046D86E000070B50D4954
:1026F000041C006903F0CCF9206903F061F8182686
:10270000207D331C4343084D0821EB18595603F034
:1027100041FD607D08214643AD19695603F03AFD3D
:1027200070BDC046A0860100B876000010B5B82381
:102730005B00C154041CC43002F03DFF0123A375AB
:1027400010BDF8B50022B82382755B00041C0F1C75
:10275000C15C006903F070F8002805D120690321ED
:1027600003F054F802251DE0261CC436301C02F08C
:102770003DFF00280FD0301C256902F023FFC1B2B5
:10278000281C03F088F80028EED12069032103F00B
:102790003DF8032506E0051C002F03D02069032126
:1027A00003F034F8281CF8BD08B50121FFF7C9FF74
:1027B00008BD38B5041C006903F08BF8002879D0F7
:1027C000206903F094F800280ED1206903F099F8ED
:1027D00000281FD0206903F08FF800281AD0206944
:1027E00003F094F8002815D1206903F005F820695A
:1027F000032103F00BF8231CFC33DD6F002D04D004
:102800002368201C9B689847A847201C183002F0BA
:10281000D2FE4FE0206903F074F8031C2069002BFE
:1028200016D002F0E9FF2069032102F0EFFF2069D2
:1028300003F06CF800283DD0201CC43002F0BBFE31
:102840000123A375FC34A36F002B33D0984731E0EC
:1028500003F048F800282DD0206903F057F8251C14
:1028600000280FD0C435281C02F0C0FEFF2100282C
:1028700003D0281C02F0A6FEC1B2206903F01CF8A8
:10288000A07517E01835281C02F0C6FE031C20694D
:10289000002B02D002F0A8FF08E003F03CF8011C76
:1028A000281C02F076FE206902F0A6FF20690321B1
:1028B00002F0ACFF38BD000008B50248FFF779FF11
:1028C00008BDC0466C01002008B503480349142226
:1028D0001523FFF7EDFE08BD6C01002090040020D9
:1028E000437A002B04D18372C372C3600123437205
:1028F000704730B585B0041C02AD006802910392A8
:1029000002F03AFF6B79E179227A00932068002384
:1029100003F09AF829792068029A02F0FDFE2068F7
:1029200002F020FF05B030BD70B5041C1826FFF77B
:10293000D7FF2079331C43430D4D0821EB1859561E
:1029400003F028FCA079331C43430821EB185956A7
:1029500003F020FC607908214643AD19695603F065
:1029600019FC044B201C06CBFFF7C3FF70BDC0460B
:10297000B8760000E802002007B5837A0091019242
:10298000002B0DD09A0706D5EFF310835A4253411E
:10299000C37272B604E0DA0702D58289034B9A60EB
:1029A0000099019AFFF7A5FF07BDC0460018004037
:1029B000837A002B0BD09A0704D5C37A002B06D05C
:1029C00062B604E0DA0702D58289014BDA6070470B
:1029D0000018004008B5006802F0D7FE08BD0000EE
:1029E000094B0A4A0A491A6000225A711A71094BA6
:1029F0001960162119711821997117215971012136
:102A00005A72D9711A727047E802002000093D001D
:102A1000A0040020F0020020F8B5061C0C1C151CB8
:102A20001F1C002A5CDB00295ADB01F0FDFBC307F9
:102A300003D40F2D54DC072C52DC301C01F0F4FBC6
:102A4000C30703D50F2C4BDC072D49DC301C01F0EC
:102A5000EBFB03280ED901239C40AB4036191D1C0B
:102A6000002F03D0328C1543358439E0338CAB43CF
:102A7000338435E003F048FC1526020A072D2BDDD0
:102A80002B1C0834083B25B21CB2E4E7A3B20F2488
:102A9000E41A24B2072CDEDD0724E41A24B2083538
:102AA00018E0ABB20F25E91A09B20722A4B291428D
:102AB00003DC141B25B20C1CCDE72D1BD41A2DB240
:102AC00024B2C8E7ADB20723072C02DD083C24B2CC
:102AD0000F235D1B2DB2BEE7231C2C1C1D1CBAE767
:102AE000F8BD08B50368C9B21B68984708BD000067
:102AF00070B50B4C0D1C017C201CFFF717FE261C2B
:102B00002B1C0F2D00D90F23202149420B43D9B292
:102B1000201CFFF7E6FF301CFFF746FE70BDC046E5
:102B20006C01002038B50B4D0C1C017C281CFFF7F4
:102B3000FDFD03220023A2425B415B421C40640076
:102B400081212143281CFFF7CCFF281CFFF72CFE16
:102B500038BDC0466C01002038B50D4D041C017411
:102B6000281CFFF7C3FD281C217CFFF7DFFD281C74
:102B70002121FFF7B6FF281CFFF716FE201C0021BD
:102B8000FFF7D0FF201C0F21FFF7B2FF38BDC04672
:102B90006C01002000230022C2520233102BFAD114
:102BA0007047000010B508211022041C01F04CF9F8
:102BB000024B201C0833236010BDC046F86E000095
:102BC00070B50D4D017C061C281CFFF7AFFD281CBD
:102BD0000021FFF754FD0024315D281CFFF781FF21
:102BE000315B281C09120234FFF77BFF102CF3D154
:102BF000281CFFF7D9FD70BD6C01002010B509B28B
:102C000012B2041C01F020F9024B201C083323608F
:102C100010BDC046986F000010B50F210722041C9C
:102C2000FFF7ECFF024B201C0833236010BDC046A9
:102C3000486F000038B5094C01300D1CC17F201CC5
:102C4000FFF774FD201CFD21FFF719FD291C201C36
:102C5000FFF715FD201CFFF7A7FD38BD6C01002014
:102C6000F8B5831CD97F061CFFF7E4FF24240E4D22
:102C7000731CD97F281CFFF759FD2B68281C1B6883
:102C8000211C98471827013F281C0021FFB2FFF79D
:102C9000F6FC002FF7D11834281CE4B2FFF784FDAE
:102CA000B42CE4D1F8BDC0466C010020F8B5171C67
:102CB0001E1C051CFFF7BEFF084C0135E97F201CD8
:102CC000FFF734FD391C201CFFF7D9FC311C201CF8
:102CD000FFF7D5FC201CFFF767FDF8BD6C01002055
:102CE00010B5141C8F2905D82431CAB2191C231C15
:102CF000FFF7DCFF10BDF8B5061C0C1C151C1F1CD3
:102D000001F092FA022808D003280DD001280FD133
:102D10000E235B1B251C1CB20AE00E231C1B062382
:102D20005D1B24B22DB203E008231B1B2C1C1DB21B
:102D3000A3B20F2B19D8ADB2062D16D8072C04DD7F
:102D40000F24E41A24B2083501E007235D1B2DB2DD
:102D500024016519E9B23A1CFF2F00D9FF22B31CE8
:102D6000D2B2DB7F301CFFF7BBFFF8BDF8B5061C05
:102D70000C1C151C1F1C01F057FA022808D0032850
:102D80000DD001280FD10F235B1B251C1CB20AE0BC
:102D90000F231C1B08235D1B24B22DB203E0082364
:102DA0001B1B2C1C1DB2A3B20F2B0FD8ABB2082BD0
:102DB0000CD82D012C19E1B23A1CFF2F00D9FF22AB
:102DC000B31CD2B2DB7F301CFFF78AFFF8BD08B519
:102DD00000220B1C072199425241524213400B2101
:102DE0000122FFF763FF08BD08B506220B1C0B216B
:102DF000002B00D00123FFF759FF08BD70B5041C5C
:102E00001C480D1CFFF772FC631CDD77A61C002517
:102E10000B210A222B1C201CF577FFF747FF0A2005
:102E200002F07AFF201C0B210A220123FFF73EFF4C
:102E3000201C0B212A1C2B1CFFF738FF201CF17FC4
:102E4000FFF7C5FF201CFFF70BFF0026321C0136E1
:102E5000201C291CFF23F6B2FFF728FF122EF5D104
:102E60000135EDB2082DF0D1201C0021FFF7BCFF89
:102E7000012070BD6C01002010B502AC2478837174
:102E800000238381016043818280C471038110BD6E
:102E90000023038143818381704738B50389828889
:102EA000041C9A4202D1C07900281AD0A279608904
:102EB00023685043181803F00AFE6089A588013082
:102EC000291C03F0CFFA89B261812389AB4203D177
:102ED00063899BB2A38103E0238901339BB22381E1
:102EE000012038BDF8B5061C00200D1C171C041C61
:102EF00082420ED0301C291CFFF7CFFF002801D1E1
:102F0000201C06E00134B379A4B2ED18BC42F7D01E
:102F1000F0E7F8BD10B5041C22890023081C9A4272
:102F200012D0A279A18923685143591803F0CFFD2B
:102F3000A089A188013003F095FA89B2A181238983
:102F4000013B9BB223810123181C10BD08B5031C53
:102F5000081C19890022914207D09A7999891B6827
:102F60005143591803F0B3FD0122101C08BD0000A5
:102F7000FA2292008260044A002302600122436028
:102F8000027443747047C046F06F0000F7B51D1C13
:102F900008AB1B78061C0F1C009201930024002D27
:102FA00022D03368301C9B689847002814D03368BF
:102FB000301CDB689847C0B20D28F2D00A2804D133
:102FC000002CEED0019B002B20D03855009B013403
:102FD000A4B29C42E5D319E0013DADB2002DDED094
:102FE000012002F099FEDAE73D55737C002B0FD0EB
:102FF000002C0DD0074D391C281C02F0F7F9009B5E
:103000009C4205D2281C02F0FBF901E00025C6E72E
:10301000201CFEBDA804002010B5437C94B0041C05
:10302000002B15D01149124802F0DCF910E003A87A
:10303000104903F0C3FD002815D003A80E4903F082
:10304000BDFD002810D0201C123003A903F0C0FDE4
:10305000002200922389201C03A94022FFF796FF3B
:103060000028E4D100E0012014B010BD1070000071
:10307000A80400200B6E00001570000037B5041C7A
:1030800000251234038940220095211CFFF77EFFA2
:103090002A1CA84204D0201C291C03F033FE021C69
:1030A000101C3EBDF8B5041C0E1C551E6B1C1FD019
:1030B000236837781A6837213B09092B00D830215B
:1030C000C918201C904723680F221B68174037211E
:1030D000092F00D83021C919201C9847002D04D091
:1030E0002368201C1B682D2198470136013DDDE730
:1030F00004204042F8BD0000F7B5089D041C0F1CD9
:103100000092019300260099F3B28B4261D2002B0A
:1031100003D1201C3D2102F06DF901997300CA5AB8
:10312000FF23111C99430B1C8021C9008B4231D015
:1031300010D8802189008B4226D0C0229200934271
:103140002ED080225200934238D1201C296802F0F0
:103150004DF933E0C022D200934227D006D8A022F6
:10316000D20093422AD10022A95E23E0E022D200BD
:1031700093421DD08022120193421FD12978201C36
:103180000A2202F0ACF919E0D2B2201C2968FFF73C
:1031900089FF13E0201C29680A2202F096F90DE04D
:1031A000201C29680A2202F06EF907E0298801E054
:1031B00000216956201C0A2202F083F9009B013B82
:1031C0009E4203D0201C2C2102F014F90136043554
:1031D00099E7201C02F014F9002F0AD0637C002B21
:1031E00003D00648064902F0FDF8201CFFF746FF11
:1031F0003860201CFFF710FFFEBDC046A804002069
:1032000010700000F0B585B00393057C041C0F1C02
:10321000161C002D03D1036801219B699847391CB6
:10322000201C02F0E3F80B9B311C0093201C039A36
:103230000A9BFFF761FF061C002D04D12368201CA8
:103240009B69291C9847301C05B0F0BDF0B585B0CE
:103250000393057C041C0F1C161C002D03D103686E
:1032600001219B699847391C201C02F0BBF80B9B7D
:10327000311C0093201C039A0A9BFFF73DFF061C9C
:10328000002D04D12368201C9B69291C9847301C01
:1032900005B0F0BD07B5011C002203891231009270
:1032A0004022FFF773FE0EBD10B5041CFFF760FE51
:1032B000064B201C2360FA23A36000236365A365EB
:1032C000E36523666366A36610BDC04630700000E8
:1032D00070B5041C0E1C0B4902F09AF8201CFFF775
:1032E0009BFE051C02F012FD6065002E03D0FA2043
:1032F000800002F011FD2368201C5B699847281CA0
:1033000070BDC0467D7000001FB5C02202AB9200A8
:103310001A80009303AB0391019303490022012318
:10332000FFF794FF05B000BD8D700000F7B5437C3A
:103330001D4F1E4E057C01930023041C4374311C59
:10334000381C02F065F8002D04D12368201C9B690D
:1033500001219847201C164902F05AF8201CFFF75B
:1033600099FF002812D0261C1236301C114903F098
:1033700025FC00280AD0301C0F4903F01FFC002850
:1033800004D0381C311C02F04DF8E7E7002D04D1C1
:103390002368201C9B69291C9847381C034902F0AC
:1033A00037F8019B6374F7BDA80400204C6E000041
:1033B000B07000000B6E00001570000070B5057C49
:1033C000041C0E1C002D03D1036801219B69984742
:1033D0000C49201C02F01CF8201CFFF75BFF201C8E
:1033E000311C123003F0EAFBC643201CF60FFFF736
:1033F00013FE002D04D12368201C9B69291C9847CB
:10340000301C70BDB47000000023012904D8037C77
:103410008B4200D001740123181C704708B5C430DA
:10342000FFF736FD08BD10B5041C02F06FFC2368E1
:103430006268C01A002390425B41D8B210BD000000
:10344000F7B5041C0F1C161C1D1CFFF72DFF0F4B9E
:10345000201C08332360211C012300938331402268
:10346000C430FFF709FD231C533303221A70221CBA
:103470005F769E76DD766F32FF2313705370937004
:10348000231C82330022201C1A70FEBD3071000004
:1034900013B5037C0122D21A041C0274694631223E
:1034A000C434D31A0731201C0B70FFF7F6FC201C24
:1034B00002490622FFF716FD13BDC04658710000F1
:1034C000F7B5051C01916F350023EB56061C072745
:1034D0000024013303D11448FFF77CFA23E00020D5
:1034E0002856002102F00EFE019B01217020B940F8
:1034F0001940305602F006FE00202856012102F045
:1035000001FE712064003056E4B202F02BFE002868
:1035100001D001231C43013FE1D2002028560021A5
:1035200002F0F0FD201CFEBDF002002070B5061C6C
:103530000C1C8D18AC4206D02178301CFFF7C0FF60
:1035400020700134F6E770BDF0B58BB01E1C10ABD7
:103550001B78041C0F1C00920193002B02D10368FE
:103560005B69984705AD1023E9782B703B12AB706F
:103570007F23321C99431A400B1C1343EB706F706E
:103580000023102E02D1019A01231340E978DA01B9
:103590007F230B401343EB70009B002B06D0002EC3
:1035A00004D006A8191C321C03F091FA221C6F32B9
:1035B00000920023D356013304D1264B264806CB74
:1035C000FFF7DAF9271C6C3700203856002102F08B
:1035D00099FDA368019302F099FB019A039004926C
:1035E0002978201CFFF76CFFFE2804D103A8FFF701
:1035F0001AFF00281BD003A8FFF715FF012545403F
:10360000EDB2002D05D06946F21C201C1531FFF7E4
:103610008DFF00203856012102F074FD009A00232E
:10362000D356013312D10C48FFF7C2F90EE0002047
:103630003856012102F066FDC8239B00013BFDD1F5
:103640006C202056002102F05DFDC9E7281C0BB05C
:10365000F0BDC04600030020F002002007B50023A3
:10366000009302491A1CFFF76FFF0EBDEFBE00006A
:10367000F8B54174041C6D2020560021251C171C30
:103680006C3502F0E5FC00202856012102F0E0FC38
:1036900000202856012102F035FD03350020285670
:1036A000431C03D12048FFF73FF911E0012102F04C
:1036B000CFFC00202856002102F024FD7120205666
:1036C000002102F0C5FC70202056012102F0C0FC50
:1036D000201CFFF7C3FF251C061C6E350020285652
:1036E000002815DB012102F0B3FC0020285601213F
:1036F00002F008FD00200021285602F003FD0A20F8
:1037000002F00AFB00202856012102F0FBFC0126F2
:1037100002F0FCFA6065002F03D0FA20800002F06E
:10372000FBFA301CF8BDC046F0020020F0B58268FC
:1037300085B05600051C0C1C02F0E8FA03960290B6
:103740006D20285602F00EFD061E06D102A8FFF7D6
:103750006AFE0028F4D0341C86E02B1C6F330193E2
:103760001B785BB2013304D1414B424806CBFFF7D3
:1037700003F92E1C6C3600203056002102F0C2FCEA
:10378000AF6802F0C3FA0397029002A8FFF74BFE5E
:1037900000281BD1281CFF21FFF792FE2070FE2875
:1037A00001D0FF280DD100203056012102F0AAFCE3
:1037B000C8239B00013BFDD16C202856002102F05C
:1037C000A1FC23780233DBB2012BDED92378202B36
:1037D00006D0802B04D002A8FFF725FE00283DD09C
:1037E00002A8FFF720FE002811D1671CFF21032249
:1037F000381C03F075F9281C391C0322FFF796FECC
:10380000A078617802F03AFA2378802B01D1002465
:1038100016E0194A801880B20228F8D8E2785206D9
:10382000520E102AF3DC271DFF21381C03F058F933
:10383000E278281C5206520E391CFFF777FE01244D
:1038400000203056012102F05DFC019A0023D3567E
:10385000013309D10748FFF7ABF805E0281CFF2129
:10386000FFF72EFE2070B1E7201C05B0F0BDC0466A
:1038700000030020F002002000F6FFFFF0B5071C57
:1038800087B03E1CC4363389B288D31A9BB20F2B43
:1038900017D901AC00211422201C03F021F9381C97
:1038A000211CFFF743FF051E0CD0E2785206520E92
:1038B00003D0301C02A9FFF715FBE378DB09E0D148
:1038C00000E00125281C07B0F0BD0000F0B585B070
:1038D0006E460F363170037C041C002B09D1009317
:1038E0002549321C0123FFF72FFE201CFFF7C6FFDE
:1038F0003FE03278051C82350D2A01D00A2A1AD100
:103900002E78002E2DD0271C7237381C1B4903221D
:1039100003F0CEF8002803D1201CFFF7B9FD08E022
:103920000023A0210093201C09013A1C331CFFF73F
:103930000BFE00230EE02B78102B0DD1271C01224B
:103940007237A021009209013A1CFFF7FDFD337880
:103950003B7001232B7004E0591CC318703329708D
:103960009A70637C002B04D06B46D97B044801F02D
:1039700041FD012005B0F0BD010A00005F710000AB
:10398000A8040020F0B5037C85B0041C0E1C171C95
:10399000002B02D08D1800272EE0022A01D83D1CF2
:1039A00024E0081C03221B4903F082F80028F6D10A
:1039B000032F04D0F3780D2B01D00A2BEFD1201C5C
:1039C000FFF766FD22E00395102D01D91022039226
:1039D000039B201CED1A2A1C511E8A410092DBB267
:1039E000321C0D49FFF7B0FD039AB618002DEAD13D
:1039F000201CFFF743FF09E0AE4207D0236831786F
:103A00001B68201C984701363F18F5E7381C05B0A5
:103A1000F0BDC0465F710000010A000037B5051C0B
:103A2000C4352B89041C002B0AD1037C002B0AD13E
:103A3000009307491A1CFFF787FD201CFFF71EFFA4
:103A4000288980B203E06D20205602F08BFB3EBD3A
:103A5000020A00007FB5061CC43633896D46041C7B
:103A60000F35002B04D0301C291CFFF753FA17E048
:103A7000037C002B05D100930C491A1CFFF764FD51
:103A800005E06D20205602F06DFB002802D0201CBE
:103A9000FFF7F4FE301C291CFFF73CFA002801D088
:103AA000287801E00120404204B070BD020A000005
:103AB0007FB5061C6D46C4360F35041C291C301C0E
:103AC000FFF744FA002818D1237C002B06D100937D
:103AD000201C0D491A1CFFF737FD05E06D2020560C
:103AE00002F040FB002802D0201CFFF7C7FE301C6C
:103AF000291CFFF72BFA002801D0287801E00120CB
:103B0000404204B070BDC046020A0000034B044AA4
:103B10001A6000225A711A717047C04600030020D3
:103B200000093D00F0B587B01E1C0CAB071C151C2E
:103B300000201B5E0DAA12880C1C591B0492CA1788
:103B400089185140321BD01712184240914208DDAB
:103B5000321C01211E1C131C221C01912C1C151C43
:103B600001E000220192B44205DD2A1C1D1C131C39
:103B7000221C341C161C321B92B202925A1BD11703
:103B8000501848400590029802B2D10F8A1852107E
:103B900092B200929D4202DA012103911FE0154A80
:103BA00003921CE001983B6800281BD01969381C5F
:103BB0008C46221C291C049BE04700980599431A57
:103BC0009BB29AB2009212B2002A06DA02990398C6
:103BD0005B182D189BB22DB20093013424B2B4426D
:103BE000E0DD05E01A69381C9446211C2A1CE2E736
:103BF00007B0F0BDFFFF0000704710B50468A4686F
:103C0000A04710BD37B506AC258804680095246B25
:103C1000A04737BD37B506AC258804680095646BAE
:103C2000A04737BD73B506AC0025665F07AC258895
:103C3000046800960195A46BA04773BD7047F0B56A
:103C400085B01F1C0AAB1B88161C03930368013F39
:103C5000DB68041C0D1CBF199847039A23683FB208
:103C6000019200971F6A201C291C321C2B1CB8478C
:103C70002368201C5B6A984705B0F0BDF0B585B09D
:103C80001F1C0AAB1B88041C039303680E1CDB6813
:103C9000151C9847039922687B1E019100959B197A
:103CA000176A201C311C2A1C1BB2B8472368201C31
:103CB0005B6A984705B0F0BDF0B587B003930CABD5
:103CC0000E1C171C0022995E0DAB1B8804910593F6
:103CD0000368041CDB689847351C039BF2182368B3
:103CE00095420BDA0599201C00919A69291C94468B
:103CF000049B3A1C0135E0472DB2EEE75B6A201CBD
:103D0000984707B0F0BD37B50C24035F0E25445F1C
:103D10000268019100940021946B0A1CA04737BDF2
:103D2000F0B585B002930AAB0E1C00215F5E0BABB1
:103D30001B88151C0393029B041C02689E420BD136
:103D4000BD4202DD2B1C3D1C1F1C03997B1C5B1B11
:103D500000911BB2176B0EE0BD4211D1029B9E4237
:103D600002DD331C029E0293029B039901330091F2
:103D70009B1B576B1BB2201C311C2A1CB8470FE041
:103D8000D3689847039A2368019200971F6A201C02
:103D9000029B311C2A1CB8472368201C5B6A984789
:103DA00005B0F0BDF0B585B01F1C0AAB151C0E1C8C
:103DB0000022995E0BAB1B88039102930368041CDD
:103DC000DB689847029923680091DA69201C9446C1
:103DD000311C2A1C3B1CE04702992368039A00917E
:103DE000D969013A52198C46201C311C3B1C12B275
:103DF000E047029A236800929969201C8C462A1C8D
:103E0000311C039BE047029A2368013F0092BE19D0
:103E100031B29F69201C2A1C039BB8472368201CD1
:103E20005B6A984705B0F0BD70470323194041769F
:103E300003894289012904D0032902D08381C281E8
:103E400001E08281C381704710B50A4C4281C28172
:103E500001220023083401818181514243600460C2
:103E60004376038243820276C18281828276C37660
:103E7000C36110BD68710000F0B595B01E1C1AAB8F
:103E80001B88041C0A931BAB1B88069104931CAB74
:103E90001D78C3690992002B00D0B1E00C20235E8D
:103EA0008B4200DC36E10E21635E934200DC31E19F
:103EB00006236B43069AD318002B00DC2AE10998ED
:103EC000EB00C318002B00DC24E1E37E002B03D1C0
:103ED000AF2E01D90136F6B22368201CDB68984763
:103EE00005235E4300210F960D930891089A0F98C1
:103EF00053B2894A06991218D25C9BB207936B435E
:103F000089B20B92099ACB1896B29BB20E93331CCE
:103F100008339BB205911093371C0C960B9BDB0763
:103F200014D52068012D09D1079A059BD118036982
:103F300009B29C463AB2201C0A9B17E00E9A33B293
:103F400011932BB211B200930A9A19E0049B0A98BC
:103F500083421BD02068012D0AD1079A059BD118F6
:103F6000036909B29C46049B3AB2201CE0470DE06D
:103F70000C9B0E9A1BB211B21193049A2BB20093B0
:103F800001924269201C9446119AE0470B9B0C98C1
:103F90005B080B9301374319109976199BB2BFB296
:103FA000B6B20C938F42B9D1089B0133DBB20893B0
:103FB0000D9B013BDBB20D93002B97D1049A0A9B1A
:103FC0009A4200D1A2E02268012D0AD104980599F5
:103FD00000900531956909B2201C099A0823A84769
:103FE00094E005216943059B049859182BB2ED0014
:103FF00001900095556909B2201C099AA84785E0EF
:104000001A7A5968B61AF6B21B68F6007618328822
:10401000F07871791193B378B67905920C93129078
:104020000D910E96012D06D90E9A4EB253B29BB247
:10403000B6B2079302E0002307931E1C2368201CDE
:10404000DB686E439847069880B28619B6B2109620
:1040500000260B9006960496129AF3B2934255D21C
:10406000099B07989BB20F9333186B430F99109AD3
:10407000CB189BB21393089200270698FBB20C99B9
:104080001A18D2B28B423BD2510707D1059B059833
:10409000119A0133125C9BB204920593049843B2C7
:1040A000002B22DA2068012D11D10D9A0B9B51B201
:1040B00059180E9B79185AB20F9B09B29A180369C6
:1040C000B2189C4612B2201C0A9BE0470DE0089AE9
:1040D000139B11B21BB20A9A03932BB20093019265
:1040E0004269201C9446039AE047049808994300CB
:1040F000DBB204934B199BB201370893BFB2BCE704
:104100004318DBB201360693B6B2A5E72368201C3C
:104110005B6A984715B0F0BDB8710000F0B5C26990
:1041200087B0041C0B1C002A28D10A2903D1037E66
:104130000282DB0029E00D2968D0817E007E002903
:104140000DD01025615F062545434D190C26A15F52
:104150008D4204DD618A2282C200521862821225D9
:10416000625FA58A02900095E58A1027E15F0195BC
:10417000201CFFF781FE227E062343E00A2908D196
:1041800000230382927A037E5343628A9B186382E0
:104190003CE00D293AD0157AA94237D3517A994299
:1041A00034D35D1B5668ED00AD19A978E878002975
:1041B00026D0002824D06F79A67E0597207E002E79
:1041C00012D01027E65FB446059E77B279184143B6
:1041D0000C27E65F6144B14206DD00212182927A1C
:1041E000618A4243521862821022A15E1226A25FA7
:1041F000A68A02900096E68A201C0196FFF73CFEF4
:104200002A79237E5343228A9B182382012007B0F8
:10421000F0BD018242827047002900D10121017660
:104220007047C18281827047407E70470C23C05E18
:104230007047000008B5024801F098FC08BDC04670
:104240000803002008B5024801F090FC08BDC046F4
:10425000CC030020F7B5164F1649381C01F0ECF9D5
:104260001549164801F0E8F91549164801F0E4F936
:104270001549164801F0E0F91549164801F0DCF936
:10428000154D03260124281C144901F0D5F9391CC9
:104290000096231C01940022114801F043FC009673
:1042A000291C01941F221E230E4801F03BFCF7BD80
:1042B0009404002000080042000C004298040020F2
:1042C000001000429C0400200014004290040020D2
:1042D00000180042A0040020A4040020001C00429A
:1042E00008030020CC0300203F20704713B502686C
:1042F0006B46D97107335468191C0122A04716BDBB
:1043000008B50069022100F027FC08BD08B5006966
:10431000032100F037FC08BD38B50D1C041C131C2C
:10432000006903212A1C00F029FD002801D1012386
:10433000636038BD10B5054C23685A1C04D103686E
:10434000DB6898472060031C181C10BD5C0000202F
:10435000074A08B51368591C04D00121494211606D
:10436000181C03E00069022100F0FAFC08BDC046F9
:104370005C00002008B50378034902330370422231
:10438000024800F0B1FD08BD1800002073090020AC
:1043900010B50178031C42780020A12908D1212AF8
:1043A0002FD118481849072200F09EFD012028E06F
:1043B000212926D1202A05D113490722114800F0CE
:1043C00027FC04E0222A10D19A780F4BDA710E4BA9
:1043D00096221968D200914210D1DC7901231C4049
:1043E0000CD1FA2001F080F80AE0232A09D1DA780A
:1043F0009B7812021A43054B1A6002E001F07AF82A
:10440000002010BD730900200C00002014000020C3
:1044100070470000064BFA21890099600549002287
:104420000831196004495A6019611A767047C0460C
:10443000A8040020087B00007309002070B5C2B2F8
:1044400019495301CB189E68184DC0242E40A4056D
:1044500026439E60164E8001096830180832586065
:104460005201505C0726B0430126304350549E69E8
:1044700035402C439C610F4C5C61505C7024A04320
:104480001024204350549C680B488A1820408024F4
:1044900064032043986098684021800B80039860F3
:1044A00053790B43537170BD7C090020FFFFFF8FD0
:1044B00094070020D0050020FF3F00F038B5041C11
:1044C00008CC01211A78051C0A431A708022201C8E
:1044D0000021520002F004FB2B689A78D107FCD42B
:1044E0005C6238BD134BF0B51B6899035A029B01FF
:1044F000C90ED20E5B0F1F2900D105211F2A00D142
:104500001D22072B00D1032304688E01278D0A4941
:104510001F2539403143218501682A400C8DAC4369
:1045200022430A8502681903108D044B03400B4394
:104530001385F0BD246080003FF8FFFFFF8FFFFF71
:10454000EFF3108303600123436072B67047036882
:10455000002B02D162B6BFF36F8F704737B5056984
:10456000041C6846002D12D1FFF7EAFF019B013BB6
:1045700003D3621DD57FEDB2F9E768460193FFF7DB
:10458000E6FF0020854217D0206AE36913E0FFF7B9
:10459000D7FF019B0025013B04D3221C3432157840
:1045A000EDB2F8E768460193FFF7D1FF002085429E
:1045B00002D0206BE36AC01A3EBD0000436810B50C
:1045C0001A68037A01215B01D318FF339A7A0A43F0
:1045D0009A72037A42685B01D318C2689C6891049E
:1045E0000B4A090922400A439A60037A42685B0138
:1045F000D3189A684021920B92039A6043681A6814
:10460000037A08335B01D3181A790A431A7110BD73
:10461000FF3F00F0F7B50569041C0E1C171C684627
:10462000002D1FD1FFF78CFF019B013B5A1C06D0C8
:10463000621DD17F5A1E00293AD0131CF6E7684646
:104640000193FFF784FF0025E369BD4235D0226A5C
:10465000934232D25A1CE261A269D3181B78735577
:104660000135F1E7FFF76CFF019B013B5A1C08D0B5
:10467000221C343215785A1EEDB2002D18D0131CAE
:10468000F4E768460193FFF762FF0025E36ABD4245
:1046900026D0226B934241D322E0621D0021D177C4
:1046A00030321678581E8E4214D1031C5A1CF4D195
:1046B00068460193FFF74BFF38E0226A934235D1F9
:1046C0000023E361012323616846FFF739FF019B63
:1046D000013BEBE71170201C0193FFF76FFFF6E73A
:1046E000226B934222D10023E36223616846FFF7E5
:1046F00027FF019B013B5A1CDAD0221C34320021D7
:10470000117001321678581E8E4201D1031CF2E757
:104710001170201C0193FFF751FFEAE75A1CE26277
:10472000A26AD3181B7873550135AFE7281CFEBD6C
:1047300037B54368027A1B68083252019A18041C84
:10474000D0790123FF21184253D0D371A068656945
:1047500062680140002D20D14901521891686361BF
:104760008904890C2162A16A68465160621DD37771
:10477000FFF7E6FE019B013B5A1C33D0221C34326A
:104780001178581EC9B20132002903D001930123C8
:10479000137023E01170031CEEE74B01D3189A68E5
:1047A000A5699204920C22630022626168465D60F2
:1047B000FFF7C6FE019B013B01E011702B1C591C49
:1047C00010D0221C343201201070621DD17F5D1E7A
:1047D000C9B230320029F0D0019310706846FFF75B
:1047E000B6FE06E068460193FFF7B1FE201CFFF716
:1047F000E5FE37BD37B500236C46E3710734201C56
:104800000D1CFFF7B7FD2B681818286001F06AFD32
:10481000211C01F021FD2B681818286020783EBD6E
:1048200003290BD10D4BB2221B685200985C8021EA
:10483000494201439954022168220CE001290CD11C
:10484000064B92221B685200985C8021494201432A
:10485000995402212822FF32995470477C09002084
:1048600038B5304B00240121051C1A201C7001F0C2
:10487000EFFB1A20012101F045FC2B4B19200121EF
:104880001C7001F0E5FB1920012101F03BFC274BD6
:104890002021DA6901200A43DA61254B06241A78BF
:1048A00002431A70234B0F2219789143197019781B
:1048B0002143197020490C782043087019780A4068
:1048C0001A701A7860210A431A701C4B1C4A5A80CD
:1048D0005A78D209FCD11B4801F012FA1A4C201C5C
:1048E000FFF7ECFD201CFFF7FDFD23687F22197800
:1048F0000A401A701A7804210A431A701A890C2186
:104900008A431A81C121114A890050580002000AC5
:104910005050802111601A7802210A431A70012335
:104920002B7038BD9007002078090020000400405B
:10493000584400413C44004159440041000C0040AF
:1049400006400000755300007C09002000E100E0F3
:104950000078002810D0094B01211B681A898A436E
:104960001A811A8B08210A431A831A8B04210A43DD
:104970001A83034B00221A607047C0467C0900204E
:10498000800A00200F4B9A69920B92039A611B6870
:104990000222FF331A7298798022524202439A719E
:1049A0001A7A9007FCD5084B081C997A7F22104090
:1049B000914301439972997A802252420A439A7232
:1049C0007047C0467C0900200050004110B50B79AB
:1049D0000C1C002B0BD1081CFFF7DAFC002804D1BB
:1049E000094B9A69920B92039A6101200BE001F046
:1049F00079FC211C01F064FC0028F6D1024B9A6975
:104A0000920B92039A6110BD7C090020F8B50D1C31
:104A1000832A16D1CAB242495301CB189C69414836
:104A2000AD012040C024A405204398613E480832CF
:104A300045195D610B685201D15C702081434020B3
:104A400065E0022A45D1382001F0A4F9374B344FF4
:104A50008026036076000023421D036203614361E8
:104A6000C36147608560C660D3772F32041CC36280
:104A700003631370301C537002F010F8A061301CF7
:104A800002F00CF8FF232A1C1A405201A062BF1842
:104A9000B968244A07260A40C02189050A43BA603A
:104AA000A16862681940126808314901885CAD004C
:104AB000B043032630438854A16862680B405B0111
:104AC000A169D3185960201CFFF778FD184BEC50F2
:104AD00025E0822A1ED1CAB211495301CB189C6924
:104AE0001048AD012040C024A405204398610E4821
:104AF000083245195D610B68520199180C798020C4
:104B0000404220430871D15C702081433020014332
:104B1000D15404E0002A02D1081CFFF78FFCF8BD35
:104B20007C090020FFFFFF8FD0050020387B0000AC
:104B30005409002038B5051C0124064BA200D258A8
:104B4000002A06D0211C281C0134FFF75FFFE4B2C5
:104B5000F3E738BD6000002008B5084B8A00D05844
:104B6000002803D003689B68984706E0C9B2044B4D
:104B70004901591888688004800C08BD5409002038
:104B80007C09002010B50C1CFFF7E6FF00280CD0B4
:104B9000064BE1B21B680831490159184A79802354
:104BA0005B4213434B710223CB7110BD7C09002083
:104BB00070B5CAB2134B144854018901591803192E
:104BC00059609D681149083229408025AD0229436A
:104BD000996099684026890B89039960036851019F
:104BE00059180D7935430D715101591889794D06C0
:104BF000FAD551015918C979CD07FAD50419A06819
:104C0000C0B270BD940700207C090020FF3F00F077
:104C100038B50C4B141C1B680D1CFF335A7940210E
:104C20000A435A710021FFF7C3FFA04200D9201C9C
:104C30000023A34204D0044A9A5CEA540133F8E703
:104C400038BDC0467C0900209407002010B5C9B2C9
:104C50000C48490143189A689204920C3F2A08D9DB
:104C6000141C9A68403CA404920BA40C92032243A7
:104C700002E09A68920B92039A6041188868C0B269
:104C800010BDC0467C090020F0B51C1C2F4B85B020
:104C90001B68061C0D1C0292002B51D02C4F39783A
:104CA000C9B2002902D1192001F02CFA64233B700B
:104CB000284BAA00D058002805D0036802995B68E9
:104CC000221C984740E0301C291CFFF745FFA042FA
:104CD00004D2301C291CFFF73FFF041C291C301C88
:104CE000FFF7B4FF1C4FE9B24A0101913968039202
:104CF0008B18FF335A7A01210A4318495A72AB01C3
:104D0000C9180298221C01F0E2FE002C1BD0301CB6
:104D1000291CFFF721FF002815D1019B3A680833B1
:104D20005B01D31819794020014319710121D97110
:104D300003995318FF339A7A01210A439A7202E0C9
:104D40000120404200E0201C05B0F0BD800A002098
:104D500078090020540900207C09002094070020D5
:104D600013B56C460734221C0123FFF78DFF012881
:104D700001D1207801E00120404216BDF0B51C1C95
:104D80003F4B85B01B680E1C0292002B6AD080231B
:104D9000DB019C4266D83B4D2978C9B2002902D17B
:104DA0001A2001F0AFF9642300222B700092002C2E
:104DB00056D0354DF7B22B6801933B1C0833019A4E
:104DC0005B01D3189B79DB091AD0304B3049186846
:104DD00001F0A4FA2F4B1721584301F09FFA3B1C16
:104DE0000833019A5B01D318DB799A0708D42A4B60
:104DF0009A5D002A38D1421E002835D0101CEEE7FB
:104E0000254B00229A55251E3F2D00D93F25234AC8
:104E1000B301D318181C02992A1C039301F057FE02
:104E2000194A7B01D318039AA9045A619A69890C1B
:104E3000920B92030A439A613B1C019A08335B016F
:104E4000D3180222DA715979802252420A435A71E8
:104E5000009B029A5B1952190093641B0292A6E709
:104E600000980BE0012008E001229A557B01ED1823
:104E7000AB69101C9B0B9B03AB61404205B0F0BDBE
:104E8000800A0020900700207C0900208C00002070
:104E900040420F0070110100C8050020D00500201D
:104EA00070B50E4D1C1C8B01ED18281C0E1C111C1E
:104EB000221C01F00CFEF6B20949760189194D61F8
:104EC0008A69084B201C13408B618B69A2049B0BE1
:104ED000920C9B0313438B6170BDC046D00500202C
:104EE0007C090020FF3F00F0F7B5114B01901B78C3
:104EF0000F1C141C002B19D10E4B1E78002E01D153
:104F0000151C08E00C4D0D482E888019361901F04B
:104F1000DEFD2E800AE0002D08D0BA192B1C019866
:104F20000021FFF7BDFF36182D1AF4E7201CFEBD47
:104F30007209002070090020C6050020C504002069
:104F4000F8B50E1C00AF151E012D28D9D31DDB08A6
:104F5000DB006A46D21A9546081C01F041FE01307A
:104F60006C4640000323207063700222AA420ED2D6
:104F70003378002B0BD0511CC9B20136A354A9427F
:104F800004D0002302326354D2B2EFE72A1C054852
:104F9000211CFFF7A9FF431E9841C0B200E000208A
:104FA000BD46F8BD7309002008B5044B00221A70F5
:104FB000034B04491A88FFF797FF08BD70090020CA
:104FC000C6050020C5040020F0B5204A87B00123A3
:104FD0000026009102A91370051C0296FFF70AFC37
:104FE00003AC092701903A1C201C311C01F078FD0C
:104FF00002236370A023E371FA232372029B012230
:10500000DB196380019B62712371104A009B27703A
:105010001670BB4205D1281C211C1A1CFFF764FF27
:1050200011E00B4B01221A700A4B211C3A1C281C60
:105030001E800296FFF758FF281C02A9FFF7DAFB33
:10504000281CFFF7B1FF012007B0F0BD7209002056
:1050500070090020C605002070B5CE788AB0051C06
:105060000C1C022E08D1C9882348FFF7ADFF031C92
:10507000581E8341D8B23DE001F034F9211C01F003
:1050800000F9002803D0C3171B1AD80F32E0012EF5
:1050900004D1E2881949112A27D823E0032E29D107
:1050A000A278002A05D11649E2880B78934219D8D4
:1050B0001BE0022A03D1A279281C124904E0012A2C
:1050C00005D1A2791049281CFFF73AFF12E0032A04
:1050D00010D101F007F901A901F0E3F8A279281C29
:1050E00001A9F1E7D2B2002A00D10A78281CFFF703
:1050F000FBFE01200AB070BD73090020567B000042
:10510000527B0000687B0000487B000073B5051CE3
:1051100048780C1C0B2878D801F0F6F8081C772882
:10512000773E4306474B686F00206FE0097801AA7D
:10513000002903D111705170281C09E0002313705D
:105140005370334B1B78012B00D11370281C0021A6
:1051500002234FE08A780023012A04D101AA1370A8
:1051600053702C4BEEE72A4A137049E08E78012EDB
:1051700007D1284B01AA00211E701170281C331C76
:1051800038E0002E08D1224A01231370224A916987
:10519000890B8903916138E0A178281CFFF7F2FBA5
:1051A00033E0281CFFF758FF30E0281C00211B4A81
:1051B0001FE00A780020D30628D1281CFFF7BAFC8C
:1051C000A2781549154B02241A600A682A23FF3376
:1051D000D05C2043D0544A20FF30145C01231C4390
:1051E00014548A69920B92038A610EE00C4A281CBF
:1051F00000210123FFF754FE07E08A78084B1A606C
:10520000054B9A69920B92039A61012076BDC046C4
:10521000C4040020710900207C090020800A0020BD
:1052200074090020F8B54B4B071C1C78002C00D0EB
:105230008EE0494D2868838B19070DD5201CFFF798
:10524000FDF82B6810201A1CFF32917A01439172ED
:10525000424A146008229A832B689A8B50071FD504
:1052600004229A833E4B1A78002A0AD01A78013A0F
:10527000D2B21A701B78002B03D11A20012100F042
:1052800041FF384B1A78002A0AD01A78013AD2B274
:105290001A701B78002B03D11920012100F032FF76
:1052A0002B68FF331A7AD10626D510221A725A7942
:1052B00040210A432C495A710A786023381C1A424B
:1052C00002D1FFF723FF01E0FFF780FB002806D0A3
:1052D0002B688022FF33997952420A4301E0234B25
:1052E00020229A712B68FF331A7A500604D5402287
:1052F0001A72597A0A435A722968FE230E8C0024C6
:105300001E40E1B2002E23D0321C012322411A425A
:1053100016D0221C2868083252018218D07918420F
:1053200003D1D279DA401A4207D0114BA200D058EB
:10533000002809D003681B6898470123A3409E43B7
:105340000134092CDDD103E0381CFFF769FAF4E7DA
:10535000F8BDC046700900207C090020800A0020AA
:10536000900700207809002094070020FF5000419A
:105370005409002008B50248FFF754FF08BDC04695
:1053800073090020014A024B1A6070470050004127
:105390007C090020F7B58A18061C0D1C01920C1C14
:1053A000019B671B9C4207D0336821781B68301C27
:1053B000984701340028F3D1381CFEBD08B50368B6
:1053C000C9B21B68984708BD38B5051C0C1C081EDF
:1053D00007D001F005FC2B68021C5B68281C211C0F
:1053E000984738BD08B5FFF7EFFF08BD08B5FFF7D0
:1053F000EBFF08BD08B503681B68984708BD0000AF
:1054000008B50249FFF7E0FF08BDC0465C71000027
:1054100038B5041CFFF7D8FF051C201CFFF7F0FF70
:10542000281838BD38B5041CFFF7CEFF051C201C1A
:10543000FFF7E6FF281838BDF0B58DB0161C0BAB92
:10544000002201900C1C1A70012E00D80A266D460D
:105450002B35201C311C00F0A5FF201CCFB2311CC5
:1054600000F05CFF291C041C092F01D8303700E034
:105470003737FFB22F70013D002CEAD10198FFF7BA
:10548000A3FF0DB0F0BDF8B5041C0D1C161E04D111
:105490000368C9B21B68984712E00A2A0DD1002997
:1054A0000ADA2D21FFF7A6FF6942071C321C201CD7
:1054B000FFF7C2FFC01903E000E0D2B2FFF7BCFF64
:1054C000F8BD08B5FFF7DFFF08BD08B5002A02D117
:1054D000FFF774FF02E0D2B2FFF7AEFF08BD08B5D8
:1054E000FFF7F3FF08BD0000014B18607047C0468E
:1054F00088000020024B012252421A607047C046C9
:1055000088000020154A1368581C25D0013B136001
:10551000002B21D172B6124A124B04329A4207D89C
:10552000BFF34F8F104A114BDA60BFF34F8F11E07A
:105530000F4B197DC807FBD5188B2021FF3192082E
:10554000520001431983DA610A4A1A801A7DD10791
:10555000FCD5E5E7C046FDE77047C046880000205F
:1055600000200000030200000400FA0500ED00E046
:105570000040004102A5FFFF10B50021041CA42239
:1055800001F0AEFA221CA4320023201C13605360E9
:1055900010BDF8B5051CA4352E68041C0F1C701C2A
:1055A000A42100F0FFFE231CA8331B68994201D000
:1055B000A7552960F8BD021C0023A432A83013604F
:1055C0000360704738B5021C041CA834A432236859
:1055D0001268934207D0C55CA421581C00F0E2FE7B
:1055E000281C216001E00120404238BD031CA43387
:1055F000A8301A680368D01A00D5A4307047031C7D
:10560000021CA833A4321B681268934201D0C05C0C
:1056100001E0012040427047031CA43310B5041C74
:105620001868A421013000F0BDFEA8342368C81A10
:1056300043425841C0B210BD01607047F7B508AC95
:10564000267804689D1E27686C1EA541ECB292075F
:1056500005683A4327063A432A600268072529402D
:105660005068B501002C00D05C03294301430C4372
:105670005460F7BD30B50368C0251C68AD03120542
:105680002A402243C024A402090421401143196086
:1056900003685A6814435C6030BD036801211A68CE
:1056A0000A431A600268116801231942FBD1D169CB
:1056B0001942F8D17047036802211A680A431A6038
:1056C0000268D3699907FCD4704703681A7ED10732
:1056D00002D41A7E9107FCD57047036800225A83D2
:1056E00070470368187E4007C00F70470368187E34
:1056F000C009704703688022197E52420A431A7615
:1057000070470368188DC0B2704703681A7E012085
:105710000242FBD01985704770B5036801268D07DA
:10572000ED0F31401C686D070907294321431960BB
:1057300004685100034800F0F1FD0138C0B2207345
:1057400070BDC046006CDC02036801211A680A4380
:105750001A600268116801231942FBD1D16919420C
:10576000F8D17047036802211A680A431A60026878
:10577000D3699907FCD470470368DA699107FCD4B0
:105780001A6802218A431A60704703689A6A520AAB
:1057900052021143996203681A7E5107FCD5986A38
:1057A000C0B27047036801211A680A431A60026890
:1057B000116801231942FBD1D1691942F8D1704710
:1057C000036802211A680A431A600368DA699107BC
:1057D000FCD45A8B30218A4310210A435A83026831
:1057E000D3695907FCD47047036880221968596847
:1057F000D2020A435A6070470368034A196859681D
:105800000A405A607047C046FFFFFBFF30B503688F
:1058100003241D680C40074A596824040A40ED0619
:1058200022436D0F5A60052D03D10268D3695907D1
:10583000FCD430BDFFFFFCFF49001143036830B5C5
:10584000CDB2598B032409092140012904D0598B79
:1058500009090C40022CF4D1596AC90AC90229432A
:1058600059620368002A03D11A7ED107FCD50DE0E6
:10587000187E01224008104008D1197E1142F7D04D
:105880005968C02292020A435A6003E05B8B0120F0
:105890009B08984330BD0368283319700268107E56
:1058A0000123184003D1518B1942F8D003E0528BE9
:1058B000181C9208904370470368283319700368D6
:1058C00000201A7E510703D55B8B01209B0898436B
:1058D000704703681868C006400F043843425841B7
:1058E000C0B270470368187E4007C00F7047036856
:1058F000187E0123184070470368588BC006C00FFC
:1059000070470368187E8007C00F70470368588B84
:105910000007C00F704703681A68D206520F052AA5
:1059200002D11A7E9107FCD528331878C0B270478F
:105930000368224A30B5934211D0214A934211D0D4
:10594000204A934211D0204A934211D01F4A9342D9
:1059500011D01F4A934230D10E2319220DE00923A2
:1059600014220AE00A23152207E00B23162204E082
:105970000C23172201E00D231822DCB21549012067
:105980009B08A0409B0008605B180320C021890091
:1059900004405D58E000FF248440A5432C1CC02532
:1059A0008540281C204358508023DB011A430A4BB2
:1059B0005A805A7852B2002AFBDB30BD0008004200
:1059C000000C004200100042001400420018004287
:1059D000001C004200E100E0000C0040F8B5041C8F
:1059E000151C0E1C1F1CFFF7A3FF201CFFF755FE04
:1059F000B1001C220A4069072368090C0A431A6097
:105A0000226884239375012E1AD10821012D00D11B
:105A100010210C4B79431868C00000F07FFC23680C
:105A200007219A890140D2044903D20C0A439A8182
:105A300023680004C20C9889400B400310439881EE
:105A4000F8BDC0468C000020F7B5019308AB041CDC
:105A50001F780D1C161CFFF777FE201CFFF768FF50
:105A6000BF070C221743C022920336051640C022FE
:105A700092022D0423683E430199154035430722C5
:105A80001D600A408021236889020A435A60F7BDDD
:105A900038B5041C0D1CFFF74BFF201CFFF782FEDE
:105AA000236814221A60074B6900186800F036FC5E
:105AB0002468421EE068FF231A4098431043E060C8
:105AC00038BDC0468C0000200120704708B503682F
:105AD000014ADB69984708BD1304000010B5041C97
:105AE0000069FFF7DAFD201C1430FFF764FD10BDDC
:105AF00008B50069FFF7E9FD08BD08B51430FFF7E8
:105B000075FD08BD08B51430FFF779FD08BD08B56F
:105B10001430FFF757FD08BD08B50069FFF7F5FD24
:105B2000012008BDF7B51D1C08AB1B78041C0093B1
:105B300009AB1B78161C019300234360FA239B00DA
:105B40008360094B0F1C083303601430FFF714FD0A
:105B5000009A231CC03327619A70019A1E705D70F1
:105B6000201CDA70FEBDC046887B000010B5041C06
:105B70000069FFF7B6FD002807D02069FFF7C1FDD7
:105B8000011C201C1430FFF704FD2069FFF7AEFD57
:105B9000002805D02069FFF7ADFD2069FFF79DFDC6
:105BA00010BDF023081C184030384342584170475C
:105BB000F0231B01194080239B0099420CD0C02385
:105BC0009B00994206D080235B000520994204D0B7
:105BD000002002E0072000E0062070470F23194054
:105BE000012905D002394B424B410220C01A00E086
:105BF00000207047F0B5031C85B00391C033041C2E
:105C0000182718783B1C43431B4E0821F31859569C
:105C1000151C00F0BFFA231CC13318780821474334
:105C2000F619715600F0B6FA01210A1C039B20698F
:105C3000FFF7D4FE291C201CFFF7BAFF291C071C04
:105C4000201CFFF7CBFF291C061C201CFFF7A9FF17
:105C5000391C0090331C20690122FFF7EFFC231C44
:105C6000C3331978013B1A782069FFF703FD2069D7
:105C7000FFF721FD05B0F0BDB87600000002084333
:105C80007047FEE7FEE7000008B5034B1B68002BDA
:105C900000D0984708BDC046840A002038B50F4997
:105CA0000F4CA14204D100F079F800F053F80BE05A
:105CB0000C4D8D42F7D00023CA18E818A24204D236
:105CC000006804331060F7E7FEE79042EBD0064B24
:105CD000064A9342E7D2002204C3F9E700000020FD
:105CE00020010020A07D000020010020A80A002043
:105CF00008B500F02CF8002801D100F01DF808BD0F
:105D0000014B18607047C046840A0020014B186898
:105D10007047C046880A002070B5041E08D0054BA5
:105D20001D681E1C00F012F833685B1BA342F9D3F8
:105D300070BDC046880A002008B5034B1A680132BE
:105D40001A60FFF7DFFB08BD880A002070470020BB
:105D50007047704710B500F0D5F800F079FEFFF7F6
:105D6000F8FF0120FFF7D8FF084C201CFEF778FD54
:105D7000201CFEF7EDFDFCF773FBFCF7E9FB044B81
:105D8000002BFAD000E000BFF7E7C04673090020FF
:105D90000000000008B500F081FE08BD70B5494A5A
:105DA0001E21536802208B430343474953608B698C
:105DB000082423438B61454C454B9C829C8A20439D
:105DC0009882101CDA689407FCD5424A01241470AA
:105DD0001478E50704D53F4C647864B2002CF7DBF7
:105DE00001249460547864B2002CFBDB3A4D394CAA
:105DF0006560547864B2002CFBDB8225354CED01E4
:105E00006580547864B2002CFBDB02249C84DC683F
:105E1000E606FCD5314D2E4CE562DD682C4CEE06D5
:105E2000FBD5A58C2E4E3543A584DD68284CEE06A7
:105E3000FBD5A58C02263543A584DC682506FCD558
:105E4000234CE4686606F8D5DC68E506FCD500243A
:105E50009460547864B2002CFBDB224D1D4C6560CD
:105E600055781C4C6DB2002DFADB1E6A1E4D354074
:105E70001D621D6A8026B5431D620323A3601B4B70
:105E8000636053785BB2002BFBDB00230B72184A74
:105E90004B728B72CB72174BFF211A60164B174A4D
:105EA0001B6812685C01D20E214011439A06520F02
:105EB00012020B1C1343124A1385436880221343BA
:105EC000436070BD00400041000400400C0600002B
:105ED00000080040000C004001050100B805FF7DEE
:105EE000040A000000070300FFFCFFFF0306010097
:105EF000006CDC028C0000202460800020608000A8
:105F000000400042314BFA21186810B5890000F0BA
:105F100005FA2F4B0138984224D82E4A2E4B506058
:105F2000186AC0210002000A090601431962002410
:105F3000072194601160196A80220902090A120679
:105F40000A431A62254BFC211A6A0A431A62196A2B
:105F5000FC2292010A431A62196AA022D2020A4361
:105F60001A6200E0FEE7201C0021013400F070F806
:105F7000142CF8D11A4C63785BB2002BFADB194B66
:105F80006380194B5A7ED209012AFAD0E422D2004A
:105F90009A803F22DA70597E134AC9090129FAD042
:105FA000C0235B0100201361907000F023F8637838
:105FB0005BB2002BFBDB0D4A094B5A800C4BDA79A4
:105FC000D209012AFAD041225A7010BD8C0000205B
:105FD000FFFFFF0010E000E000ED00E000040040E3
:105FE000000C00401E400000004000422140000024
:105FF0000048004200B5144A517E131CC90901290A
:10600000F9D00138042813D81969104A0A401A61D6
:106010005A780F218A4300F077F903050907030036
:10602000012102E0032100E002210A435A700AE044
:106030001169F0231B050B43136153780F218B4328
:1060400002210B43537000BD00400042FFFFFFF0F0
:1060500010B51824021C201C5043274B1818007A36
:1060600040B2013046D0032944D8081C211C00F05E
:106070004BF902331121624398569A18C3011F4805
:1060800052681B1899184031022008700121914074
:1060900059602FE06243985618499A185268C30114
:1060A0005B18991840310620087001219140596011
:1060B00099611FE051435A56104859184B68D20154
:1060C0001118C81840300624047001209840486018
:1060D0000B49521850600DE0624398569A18C3015C
:1060E000064852681B189918403102200870012197
:1060F0009140996010BDC046B87600000044004150
:106100001044004118235843134AF0B513180824CB
:106110001C5701341FD08256104ED2015D680124F5
:106120009019231C8668AB401E420BD10E1C771EB3
:10613000BE41401934404030A50004780426B443E1
:106140002C430470002903D105495218536002E022
:10615000024E92199361F0BDB876000000440041F0
:106160001044004118235843084A0821131859566F
:10617000013109D082560649D20152185B68106A73
:10618000D8400123184000E000207047B876000096
:106190000044004118224243F8B52D4D0824AA18A6
:1061A0001457031C621C50D0481C00240C284CD8E7
:1061B00000F0AAF8071E1E1E1E1E1E1E1E0A0A0A38
:1061C0000A000124644240E0092902D1181C002180
:1061D00003E00A2904D1181C0221FFF739FF23E04C
:1061E00000240B2931D1181C0121FFF731FF2CE0CD
:1061F00018225343EA185268EB560120141C04403D
:106200005508DB01002C11D0124C1B195D193035DB
:106210002E780C010F21314021439A18C9B2297000
:10622000403213781843107000240EE0094E0F27F7
:106230009B195D1930352E789A18BE433143C9B287
:1062400029704032137818431070201CF8BDC046E6
:10625000B87600000044004170B544680E1C00256B
:10626000002C09D02368201C5B68311C984700284B
:1062700004DB2D18E468F3E7281C01E0012040420C
:1062800070BD38B544680D1C002C08D02368201C54
:106290009B68291C9847002802D1E468F4E7201C79
:1062A00038BD38B544680D1C002C07D02368201C6D
:1062B000291CDB689847E4682D18F5E72C7038BD79
:1062C00038B544680D1C002C08D02368201C1B68BE
:1062D000291C9847002803D1E468F4E7201C00E05B
:1062E000012038BD064B0122196810B51140054840
:1062F00005D1022404700424447041601A6010BD6A
:10630000940A00208C0A002002B471464908490012
:10631000095C49008E4402BC7047C046002934D055
:106320000123002210B488422CD301242407A14267
:1063300004D2814202D209011B01F8E7E400A14224
:1063400004D2814202D249005B00F8E7884201D3BF
:10635000401A1A434C08A04202D3001B5C08224397
:106360008C08A04202D3001B9C082243CC08A04208
:1063700002D3001BDC082243002803D01B0901D0F4
:106380000909E3E7101C10BC7047002801D0002069
:10639000C04307B4024802A14018029003BDC046A2
:1063A000D90000000029F0D003B5FFF7B9FF0EBCFB
:1063B0004243891A1847C046002941D010B4041C32
:1063C0004C40A44601230022002900D54942002860
:1063D00000D5404288422CD301242407A14204D294
:1063E000814202D209011B01F8E7E400A14204D274
:1063F000814202D249005B00F8E7884201D3401A8B
:106400001A434C08A04202D3001B5C0822438C08AC
:10641000A04202D3001B9C082243CC08A04202D316
:10642000001BDC082243002803D01B0901D0090906
:10643000E3E7101C6446002C00D5404210BC7047B6
:10644000002806D003DB0020C043400801E0802084
:10645000000607B4024802A14018029003BDC046DE
:10646000190000000029EBD003B5FFF7A7FF0EBC11
:106470004243891A1847C0467047C046F0B55F4688
:1064800056464D464446F0B446024500C00F85B01E
:106490000F1C760A2D0E804641D0FF2D26D0802479
:1064A000240400212643F6007F3D89468B46F90FE0
:1064B0007C027800640A000E00918A463CD0FF28D6
:1064C00034D080231B041C430023E4007F38019355
:1064D000009F4346019A7B4049469C4611430F2941
:1064E00000D971E0764F89007F58BF46002E3ED11B
:1064F0000822022391469B46D9E75A46341CC246DD
:1065000001920199022937D0032900D1CFE0012956
:1065100000D0ABE053460B400022002632E0002EB4
:1065200019D10421012289469346C0E7221C531E3B
:106530009A4102320192CBE701270197002CC7D084
:10654000201C00F067FA431F9C4076235B42002129
:10655000181A0191BCE7301C00F05CFA7625431F45
:106560009E406D4200232D1A99469B469FE70C23BF
:10657000032199468B469AE7D446012367463B4060
:10658000FF2200267602D205700ADB07104318436B
:1065900005B03CBC90469946A246AB46F0BD80266D
:1065A0000023F603FF22EDE700220026EAE7802021
:1065B000C00306423BD0044239D1061C2643760272
:1065C000760A009BFF22DDE7281A0390760164011A
:1065D000A64239D3361B1A2201230120311C5B004D
:1065E0007600002901DBB44201D8361B0343013A8F
:1065F000002AF3DC741EA641341C1C43039A7F322C
:10660000002A27DD630704D00F232340042B00D08A
:106610000434270103D52B4B039A1C408032FE2AF9
:106620000BDD012361460B40FF220026AAE706434B
:106630007602760A4346FF22A4E7A40101236746B7
:10664000660AD2B23B409DE7039F1B22013F03979E
:106650000023C2E77E23039F5B42DB1B1B2B07DD6E
:10666000012361460B40002200268BE7D446C5E794
:10667000221CDA40039B9E339C40231C5C1EA341DA
:1066800013435A0704D00F221A40042A00D00433BF
:106690005F0105D5012361460B400122002671E709
:1066A0009E01624601231340760A00226AE7802693
:1066B000F60326437602760A5346FF2262E7C04677
:1066C000B87B0000FFFFFFF7F0B55F4656464D462A
:1066D0004446F0B44402460083B00F1C640A360EF0
:1066E000C50F002E41D0FF2E22D080231B04002096
:1066F0001C43E4007F3E82468046391C4B007F02EB
:10670000C90F7F0A1B0E8B463BD0FF2B34D0802253
:1067100012041743FF007F3B00215A466A40019252
:1067200052460A430F2A63D87A4892008258974605
:10673000002C3FD10822022392469846DDE70195BE
:10674000404602282AD1019A01251540FF23002442
:106750006402DB05600AED071843284303B03CBC24
:1067600090469946A246AB46F0BD002C27D10420A6
:10677000012282469046C0E7391C4A1E91410231EF
:10678000CBE70121002FC8D0381C00F043F9431F8C
:106790009F4076235B421B1A0021BEE7032800D1ED
:1067A000AEE001284FD1019842461040C5B2002307
:1067B0000024CDE70C2303209A4680469DE7201C49
:1067C00000F028F97626431F9C4076420023361AB3
:1067D0009A46984691E780240025E403FF23B7E713
:1067E0005B463C1C01938846AAE73C1C8846A7E709
:1067F000250C24043A0C240C3F04F6183F0C211CF1
:10680000231C794353436F435543FB180A0C9B18D1
:10681000B1469F4202D980225202AD1809041A04DF
:10682000090C521894011B0C611E8C41920EED183C
:106830001443AD012C43230105D501226308012037
:10684000144081441C434B467F33002B2DDD6007F1
:1068500004D00F222240042A00D00434220103D5A0
:106860002D4B1C404B468033FE2B17DD019B012531
:106870001D400024FF236BE78020C003044208D0A2
:10688000074206D1041C3C436402640A5D46FF23B0
:106890005EE704436402640AFF2359E70198A401F8
:1068A0000125640ADBB2054052E77E235B424A467B
:1068B0009B1A1B2B05DD019B01251D400024002395
:1068C00046E7221CDA404B469E339C40231C5C1E4C
:1068D000A3411343580704D00F221A40042A00D0C2
:1068E00004335A0105D5019B01251D4000240123D5
:1068F0002EE701989C010125640A0540002327E743
:106900008027FF03019B3C43640201251D40640A6C
:10691000FF231DE7F87B0000FFFFFFF74302590A42
:106920004300C20F1B0E00207E2B0DDD9D2B0CDCC7
:10693000802000040143952B0ADC9620C31AD9401D
:106940004842002A00D1081C7047034BD018FBE7CF
:10695000963B9940F4E7C046FFFFFF7F70B5041EE9
:106960003CD0C60F00D04442201C00F053F89E23B8
:10697000251C1B1A962B0CDC083884406402640A20
:10698000DBB2321C6402DB05600AD20718431043F5
:1069900070BD992B0ADD0522121A211CD1400A1C58
:1069A000011C1B318D40691E8D411543052801DDF9
:1069B000421F9540164C2C406A0704D00F22154008
:1069C000042D00D0043461010CD59F23181AFF2830
:1069D0001AD0A401640AC3B2321CD3E700220023F8
:1069E0000024CFE7E408FF2B04D06402640ADBB282
:1069F000321CC7E7002C04D08020C003044364028B
:106A0000640A321CFF23BDE7321CFF230024B9E7D0
:106A1000FFFFFFFB1C2101231B04984201D3000C44
:106A200010391B0A984201D3000A08391B09984201
:106A300001D30009043902A2105C40187047C04617
:106A40000403020201010101000000000000000037
:106A500070B50E4B0E4D0024ED1AAD101E1CAC424D
:106A600004D0A300F35898470134F8E700F072F916
:106A7000084B094D0024ED1AAD101E1CAC4204D089
:106A8000A300F35898470134F8E770BDF8000020E0
:106A9000F8000020F80000201401002008B5034B86
:106AA000011C186800F024F808BDC046F000002062
:106AB00030B50023934208D0C55C0133CC18013CAB
:106AC0002478A542F6D0281B00E0002030BD10B588
:106AD0000023934203D0CC5CC4540133F9E710BDCA
:106AE000031C8218934202D019700133FAE77047F1
:106AF00070B50323CD1C9D430835061C0C2D01D217
:106B00000C2501E0002D3FDB8D423DD3204B1C685E
:106B10001A1C211C002913D00868431B0DD40B2B11
:106B200002D90B60CC181EE08C4202D1636813605E
:106B30001AE0486860600C1C16E00C1C4968E9E724
:106B4000144C2068002803D1301C00F025F8206088
:106B5000301C291C00F020F8431C15D0C41C032352
:106B60009C4384420AD12560201C0B300722231D40
:106B70009043C31A0BD05A42E25008E0211A301C4D
:106B800000F00AF80130EED10C233360002070BD14
:106B90009C0A0020980A002038B5074C0023051CE9
:106BA000081C236000F0BCF8431C03D12368002BB1
:106BB00000D02B6038BDC046A40A002002780B78B4
:106BC00001300131002A01D09A42F7D0D01A704723
:106BD000031C0A7801311A700133002AF9D1704779
:106BE0000023C25C0133002AFBD1581E704700000D
:106BF000F0B51D1C424B87B01B68059002930391B2
:106C000001920B1C1C78029F5E1C3A1951780822D5
:106C10000A4001D0331CF5E72D2C04D101279E1C1E
:106C20005C78009704E000922B2C01D15C789E1CCC
:106C300010232A1C9A4311D1302C08D132782021FC
:106C40008A43582A07D174781D1C023606E0002DAD
:106C500004D10A2502E0002D00D10825009F291C3F
:106C60007B427B4180273F06FF1A381CFFF79AFBC7
:106C7000381C0491291CFFF751FB0023021C181C2F
:106C8000029F391949784F0701D5303C07E00327A7
:106C90000F4017D05721012F00D13721641AAC4281
:106CA00010DA591C0BD0904207D802D1049FBC4285
:106CB00003DC68430123201801E001235B423478A0
:106CC0000136DDE7009F591C0BD180207B427B41C0
:106CD0000006059FC01A22233B60019F002F09D1A7
:106CE0000BE0002F00D04042019F002F05D0039AF7
:106CF000002B00D0721E019F3A6007B0F0BDC04665
:106D0000F400002038B5131C044A051C0C1C106844
:106D1000291C221CFFF76CFF38BDC046F000002084
:106D2000094A1368002B0CD018186946884202D80B
:106D30001060181C7047054B0C2201201A6040425D
:106D4000F8E7034B1360EFE7A00A0020A40A002035
:106D5000A80A0020F8B5C046F8BC08BC9E4670479B
:106D6000F8B5C046F8BC08BC9E4670473000436882
:106D700065636B73756D206D69736D6174636820F5
:106D8000696E207061636B6574203A2000457272F1
:106D90006F723A2000436F756C646E2774206669C9
:106DA0006E6420426C756566727569742C206D6125
:106DB0006B652073757265206974277320696E2076
:106DC000436F4D6D616E44206D6F646520262063B6
:106DD0006865636B20776972696E673F00436F7502
:106DE0006C646E277420666163746F7279207265BB
:106DF00073657400302E362E360041542B48574DA3
:106E00006F64654C45443D535049004F4B00495316
:106E10003331284C454457696E6731303529206E2F
:106E20006F7420666F756E64004665617468657284
:106E30005F6C696768745F75702E696E6F2076305D
:106E40002E31002D2D2D2D2D2D2D2D2D2D2D2D2D9A
:106E50002D2D2D2D2D2D2D2D2D2D2D2D00556E73E0
:106E60007570706F727465642074617267657421E7
:106E70000000000004000000080000000C000000FA
:106E80001000000018000000200000002800000092
:106E90003C0000005000000078000000A00000004E
:106EA000F0000000F0000000A000000078000000EA
:106EB000500000003C0000002800000020000000FE
:106EC00018000000100000000C0000000800000086
:106ED00004000000000000000000000000000000AE
:106EE0007F26000045260000752600006B26000066
:106EF000A726000069260000000000000000000036
:106F00001D41000095530000192A0000F93B0000C4
:106F1000FB3B0000253C0000053C0000153C000048
:106F2000253B00003D3C00002B3E0000293E0000B8
:106F30003F3C00007D3C0000B93C0000073D0000E4
:106F4000213D0000A53D0000000000000000000001
:106F50001D41000095530000F72C0000F93B000094
:106F6000FB3B0000253C0000053C0000153C0000F8
:106F7000253B00003D3C00002B3E0000293E000068
:106F80003F3C00007D3C0000B93C0000073D000094
:106F9000213D0000A53D00000000000000000000B1
:106FA0001D410000955300006D2D0000F93B0000CD
:106FB000FB3B0000253C0000053C0000153C0000A8
:106FC000253B00003D3C00002B3E0000293E000018
:106FD0003F3C00007D3C0000B93C0000073D000044
:106FE000213D0000A53D0000000000000000000061
:106FF000835C000095530000835C0000835C00000C
:10700000835C0000835C0000835C000000000000E3
:107010000A3C2D20004552524F52004F4B0D004567
:1070200052524F520D00000000000000000000000E
:10703000835C000095530000835C0000835C0000CB
:10704000835C0000835C0000835C000000000000A3
:1070500041542B4556454E54454E41424C453D30DA
:10706000780041542B4556454E5444495341424CB7
:10707000453D3078002C30780041545A0041542B63
:10708000464143544F52595245534554004154458B
:107090000041542B474150474554434F4E4E004109
:1070A000542B474150444953434F4E4E454354009F
:1070B000415449004154493D340041542B45564503
:1070C0004E545354415455530041542B424C455552
:1070D00041525452580041542B424C454D49444969
:1070E00052585241570041542B4741545443484150
:1070F000525241573D0041542B4741505345544152
:107100004456444154410041542B4E564D57524928
:1071100054450041542B4E564D524541445241571F
:107120003D0041542B4E564D524541440000000055
:107130000000000000000000CD380000853900008C
:107140001D3A0000553A0000B13A00001D3400001D
:1071500009340000000000000D0A4F4B0D0A002BFF
:107160002B2B0000000000000000000000000000C9
:107170001D41000095530000835C0000F93B0000B6
:10718000FB3B0000253C0000053C0000153C0000D6
:10719000253B00003D3C00002B3E0000293E000046
:1071A0003F3C00007D3C0000B93C0000073D000072
:1071B000213D0000A53D000000000000003E5B4FA7
:1071C0005B3E3E6B4F6B3E1C3E7C3E1C183C7E3C47
:1071D000181C577D571C1C5E7F5E1C00183C180055
:1071E000FFE7C3E7FF0018241800FFE7DBE7FF30E5
:1071F000483A060E2629792926407F050507407F53
:1072000005253F5A3CE73C5A7F3E1C1C08081C1CC5
:107210003E7F14227F22145F5F005F5F06097F01BB
:107220007F006689956A606060606094A2FFA294A6
:1072300008047E040810207E201008082A1C080874
:107240001C2A08081E101010100C1E0C1E0C3038C2
:107250003E3830060E3E0E06000000000000005FC3
:1072600000000007000700147F147F14242A7F2ADF
:1072700012231308646236495620500008070300A1
:10728000001C2241000041221C002A1C7F1C2A08ED
:10729000083E080800807030000808080808000050
:1072A00060600020100804023E5149453E00427FC4
:1072B000400072494949462141494D331814127F13
:1072C0001027454545393C4A4949314121110907B3
:1072D0003649494936464949291E00001400000034
:1072E0004034000000081422411414141414004106
:1072F00022140802015909063E415D594E7C1211C3
:10730000127C7F494949363E414141227F414141FA
:107310003E7F494949417F090909013E4141517375
:107320007F0808087F00417F41002040413F017FE6
:10733000081422417F404040407F021C027F7F04AE
:1073400008107F3E4141413E7F090909063E4151F7
:10735000215E7F09192946264949493203017F01E7
:10736000033F4040403F1F2040201F3F4038403FE8
:10737000631408146303047804036159494D4300FE
:107380007F4141410204081020004141417F040235
:1073900001020440404040400003070800205454CC
:1073A00078407F28444438384444442838444428AA
:1073B0007F385454541800087E090218A4A49C78FD
:1073C0007F0804047800447D40002040403D007F59
:1073D0001028440000417F40007C047804787C0839
:1073E0000404783844444438FC182424181824240D
:1073F00018FC7C08040408485454542404043F44F2
:10740000243C4040207C1C2040201C3C4030403C20
:1074100044281028444C9090907C4464544C440080
:1074200008364100000077000000413608000201E4
:107430000204023C2623263C1EA1A161123A4040D0
:10744000207A38545455592155557941225454784D
:1074500042215554784020545579400C1E527212E6
:10746000395555555939545454593955545458006F
:1074700000457C410002457D420001457C407D1273
:1074800011127DF0282528F07C54554500205454D5
:107490007C547C0A097F4932494949323A44444480
:1074A0003A324A4848303A4141217A3A42402078BB
:1074B000009DA0A07D3D4242423D3D4040403D3CBC
:1074C00024FF2424487E4943662B2FFC2F2BFF09E1
:1074D00029F620C0887E09032054547941000044D5
:1074E0007D413048484A32384040227A007A0A0AC0
:1074F000727D0D19317D2629292F28262929292633
:1075000030484D4020380808080808080808382F77
:1075100010C8ACBA2F102834FA00007B0000081401
:107520002A142222142A14085500550055AA55AAD7
:1075300055AAFF55FF55FF000000FF00101010FF77
:1075400000141414FF001010FF00FF1010F010F0D2
:10755000141414FC001414F700FF0000FF00FF14C3
:1075600014F404FC141417101F10101F101F14140F
:10757000141F00101010F0000000001F1010101059
:107580001F10101010F010000000FF10101010104D
:1075900010101010FF10000000FF140000FF00FF8B
:1075A00000001F10170000FC04F414141710171427
:1075B00014F404F40000FF00F71414141414141449
:1075C000F700F7141414171410101F101F141414BC
:1075D000F4141010F010F000001F101F0000001F26
:1075E00014000000FC140000F010F01010FF10FF59
:1075F000141414FF141010101F00000000F010FFEE
:10760000FFFFFFFFF0F0F0F0F0FFFFFF00000000D1
:1076100000FFFF0F0F0F0F0F3844443844FC4A4A55
:107620004A347E02020606027E027E02635549410A
:10763000633844443C04407E201E2006027E020241
:1076400099A5E7A5991C2A492A1C4C7201724C3055
:107650004A4D4D303048784830BC625A463D3E492C
:107660004949007E0101017E2A2A2A2A2A44445FD0
:10767000444440514A444040444A51400000FF01C4
:1076800003E080FF000008086B6B083612362436D2
:10769000060F090F06000018180000001010003037
:1076A00040FF0101001F01011E00191D1712003CBF
:1076B0003C3C3C0000000000000000000B0000000B
:1076C0000200000004000000FF00FFFFFFFF0B00AE
:1076D000000000000A00000002000000040000009A
:1076E000FF00FFFFFFFF0A00000000000E00000087
:1076F0000800000004000000FF00FFFFFFFF0E0075
:107700000000000009000000040000001C00000050
:10771000FF00010001000900000000000800000057
:10772000040000001C000000FF000000000010002A
:10773000000000000F000000040000001C0000001A
:10774000FF00010301030F0000000000140000000F
:10775000050000002C000000FF00020002000400F1
:1077600000000000150000000800000004000000F8
:10777000FF00FFFFFFFF0500000000000600000003
:10778000040000001C0000000600000100010600CB
:107790000000000007000000040000001C000000C2
:1077A00007000101010107000000000012000000B5
:1077B000040000001C000000FF00000300030200A2
:1077C0000000000010000000040000001C00000089
:1077D000FF00000200020000000000001300000093
:1077E000050000002C000000FF0003000300030060
:1077F0000000000011000000040000001C00000058
:10780000FF00010201020100000000000200000070
:1078100001000000020000000000FFFFFFFF020067
:107820000100000008000000010000001800000036
:10783000020000040004080001000000090000002C
:107840000100000018000000030001040104090009
:107850000000000004000000010000000000000023
:107860000400FFFFFFFF040000000000050000000F
:1078700001000000000000000500FFFFFFFF050001
:1078800001000000020000000100000000000000F4
:107890000A00FFFFFFFF02000000000016000000CA
:1078A0000200000004000000FF00FFFFFFFF0600D1
:1078B00000000000170000000200000004000000AB
:1078C000FF00FFFFFFFF0700000000000C000000AA
:1078D0000300000004000000FF00FFFFFFFF0C009A
:1078E000010000000A000000030000000400000086
:1078F000FF00FFFFFFFF0A00010000000B00000077
:107900000300000004000000FF00FFFFFFFF0B006A
:1079100001000000030000000B0000000400000054
:10792000FF00FFFFFFFFFF00000000001B00000042
:107930000B00000004000000FF00FFFFFFFFFF003E
:10794000000000001C000000060000000000000015
:10795000FF00FFFFFFFFFF00000000001800000015
:107960000600000000000000FF00FFFFFFFFFF0017
:1079700000000000190000000600000000000000E8
:10798000FF00FFFFFFFFFF000100000016000000E6
:107990000300000000000000FF00FFFFFFFFFF00EA
:1079A00001000000170000000300000000000000BC
:1079B000FF00FFFFFFFFFF000000000016000000B7
:1079C0000200000000000000FF00FFFFFFFFFF00BB
:1079D000000000001700000002000000000000008E
:1079E000FF00FFFFFFFFFF0000000000130000008A
:1079F0000200000000000000FF00FFFFFFFFFF008B
:107A00000000000010000000020000000000000064
:107A1000FF00FFFFFFFFFF0000000000120000005A
:107A20000200000000000000FF00FFFFFFFFFF005A
:107A30000000000011000000020000000000000033
:107A4000FF00FFFFFFFFFF00000000000D0000002F
:107A5000040000000C000000FF000100FFFF0D000B
:107A60000000000015000000050000000C000000F0
:107A7000FF000300FFFFFF00000000000600000001
:107A8000040000000C000000FF000001FFFFFF00E9
:107A90000000000007000000040000000C000000CF
:107AA000FF000101FFFFFF000000000003000000D5
:107AB0000100000002000000FF00FFFFFFFFFF00C9
:107AC00000000000020000000100000002000000B1
:107AD0001400FFFFFFFF020000000000060000008E
:107AE0000100000002000000060000010001060085
:107AF000000000000700000001000000020000007C
:107B00000700010101010700000000000000000063
:107B1000ED42000019430000014300005143000002
:107B2000354300000D430000E94200000000000062
:107B30000000000000000000314700001546000072
:107B40005D45000000000000416461667275697463
:107B500000000403090412010002EF0201409A230D
:107B60000B800001010203014665617468657220A3
:107B70004D30006E616E00696E66006F7666002E95
:107B800000000000000000000000000000000000F5
:107B9000195B000095530000FB5A00000F5B0000CA
:107BA000055B0000F15A0000CD5A0000F55B0000B3
:107BB000DD5A0000C95A0000C86500007A6500005F
:107BC000A865000002650000A86500009E65000031
:107BD000A8650000026500007A6500007A65000073
:107BE0009E65000002650000FA640000FA6400006F
:107BF000FA640000AE650000F0670000EA6700006C
:107C0000EA670000E067000040670000406700008E
:107C1000D6670000E067000040670000D6670000FC
:107C200040670000E06700003E6700003E6700001C
:107C30003E670000786800004300002020202020DC
:107C4000202020202828282828202020202020200C
:107C500020202020202020202020208810101010FC
:107C60001010101010101010101010040404040450
:107C7000040404040410101010101010414141417C
:107C80004141010101010101010101010101010164
:107C90000101010101011010101010104242424276
:107CA0004242020202020202020202020202020234
:107CB0000202020202021010101020000000000058
:107CC00000000000000000000000000000000000B4
:107CD00000000000000000000000000000000000A4
:107CE0000000000000000000000000000000000094
:107CF0000000000000000000000000000000000084
:107D00000000000000000000000000000000000073
:107D10000000000000000000000000000000000063
:107D20000000000000000000000000000000000053
:107D30000000000000000000000000000000000043
:107D40000000000000000000000000000000000033
:107D50000000000000000000000000000000000023
:107D60000000000000000000000000000000000013
:107D70000000000000000000000000000000000003
:107D800000000000000000000000000000000000F3
:107D900000000000000000000000000000000000E3
:107DA00001000000FF0000000100000000C201000F
:107DB00000000800FFFFFFFF080B000202020000A6
:107DC000090400000102020000052400100104243F
:107DD00002060524060001052401010107058103AF
:107DE00010001009040100020A0000000705020249
:107DF000400000070583024000000000FFFFFFFF76
:107E0000000000008300000002000000820000006B
:107E10000000000000000000000000000000000062
:107E20000000000000000000FFFFFFFF40420F00C5
:107E3000000000003C7D00005C7D00007C7D0000B7
:107E40000000000000000000000000000000000032
:107E5000387C00000000000000000000000000006E
:107E60000000000000000000000000000000000012
:107E70000000000000000000000000000000000002
:107E800000000000000000000000000000000000F2
:107E9000900000203A7C0000DD200000C92800008E
:107EA000E12900000D3B0000554200001544000090
:107EB00085530000B5200000000000000000000015
:0400000300005C9D00
:00000001FF
